:0E00000029C0FECFFDCFFCCF16C2FACFF9CF3C
:10000E00F8CFA9C1F6CFF5CFF4CFF3CFF2CFF1CF22
:10001E00F0CFEFCFEECFEDCFA0F96470393222F8EA
:10002E0020302823A661262E7F3CFF6B27FEF7008B
:10003E00080402010000000002000200420001005C
:10004E00050044000000F894EE27ECBBF1E0FBBF86
:10005E00EBBFE5BFF8E1F1BDE1BD8DE0A2E0BB274E
:10006E00ED938A95E9F780E094E0A0E6ED93019791
:10007E00E9F7E6E4F0E085919591009761F0A5919E
:10008E00B59105901590BF01F00105900D92019765
:10009E00E1F7FB01F0CFEFE5EDBFE4E0EEBFC0E628
:1000AE00D1E038C2E4EEE6BFE6B7E078E9F30895B2
:1000BE00E4E9E6BF0895AA93E881E3B9E4E8E6BF70
:1000CE00E6B7E078E9F327C0AA931A93A981A13085
:1000DE0011F4E4EC01C0E4E8E6BFE6B7E078E9F33A
:1000EE0013B1E12F188122960895AA93E881E07F3B
:1000FE004CD2C9D2AAE0EA02F001AE2FE881EF702D
:10010E00EA0F09C0AA93A88142D2A0E1EA02602DAB
:10011E00A88142D2E60F2196089543D2AEE0CBDFFE
:10012E00A0E0C9DFA8E8C7DFC3DF0895BA93AA939A
:10013E0038D2A0E0C0DFBCDFB5DFA1EDBCDF34D22A
:10014E00AC85BD8535D2AA85BB8532D2A885B98549
:10015E002FD2AE81BF812CD2AC81BD8129D2AA8192
:10016E00BB81EC93A0E0B0DFAE2FBFDFA881B981D9
:10017E00EC939EDF2E960895AA9313D2A0E09BDFF8
:10018E00A0E018D2AD8116D2AC8114D2AB8112D2BE
:10019E00AA8110D2A9810ED2A8810CD289DF26960F
:1001AE000895E6E0CE1618F408D2319601C0E0E0CC
:1001BE00CE2E08951A931FE1EB2DE7D100D211F048
:1001CE0002D209F402C003D209F404C0E730A0E061
:1001DE00FA0709F404C0E830A0E0FA0709F404C0F5
:1001EE00EA30A0E0FA0709F404C0EC30A0E0FA0708
:1001FE0011F41FE11DC0EFD111F0F1D109F404C0CB
:10020E00E930A0E0FA0709F404C0EB30A0E0FA07E9
:10021E0011F41EE10DC0E7D159F4AA2DBB27E4E07D
:10022E00F0E052D2309711F4EDE101C0ECE11E2F57
:10023E00E12F19910895C1D1309709F443C0BFD170
:10024E0049F4E3E6AE1618F4EA2DD1D101C0E0E090
:10025E00AE2E36C0C8D149F4ECE0BE1618F4EB2D24
:10026E00C6D101C0E1E0BE2E2BC0ADD149F4E7E00E
:10027E009E1618F4E92DBBD101C0E1E09E2E20C0E0
:10028E00AAD149F497DF8E1618F4E82DB0D101C02B
:10029E00E1E08E2E15C09BD149F4E7E16E1618F4FD
:1002AE00E62DA5D101C0E0E06E2E0AC098D151F422
:1002BE00EBE37E1618F4E72D9AD101C0E0E07E2E16
:1002CE007A9298D1089579D1309709F443C077D1B5
:1002DE0049F4E0E0EA1518F4EA2D92D101C0E3E604
:1002EE00AE2E36C080D149F4E1E0EB1518F4EB2DBB
:1002FE0087D101C0ECE0BE2E2BC065D149F4E1E000
:10030E00E91518F4E92D7CD101C0E7E09E2E20C03E
:10031E0062D149F4E1E0E81518F4E82D71D101C07D
:10032E0049DF8E2E15C053D149F4E0E0E61518F4DE
:10033E00E62D66D101C0E7E16E2E0AC050D151F410
:10034E00E0E0E71518F4E72D5BD101C0EBE37E2E5C
:10035E007A9250D108950A921A92FA926A937A93E7
:10036E008A939A93AA93BA93EA93FA93EFB7EA937E
:10037E00989915C020FE10C023FE09C026FE04C0A9
:10038E0010DFE89440D101C0689426F804C0689448
:10039E0023F8E89426F803C0689435D126F8999985
:1003AE0015C021FE10C024FE09C027FE04C043DF85
:1003BE00E8942DD101C0689427F804C0689424F8FD
:1003CE00E89427F803C0689422D127F89A9915C0AB
:1003DE0022FE10C025FE09C030FE04C074DFE89472
:1003EE001AD101C0689430F804C0689425F8E894D6
:1003FE0030F803C068940FD130F8E0E0F0E0FDBDB6
:10040E00ECBDC69B02C0C69801C0C69AE991EFBF6B
:10041E00F991E991B991A9919991899179916991FE
:10042E00F9901990099018950A92AA93EA93FA9363
:10043E00EFB7EA93E8B3E07FE8BBE52DA6D0E05A2C
:10044E00FE4FE081A2D0EA5DFF4F049002BAE8B3FE
:10045E00AE2FE52D9AD0E25CFF4FE491EA2BE8BB7C
:10046E005394E3E0E51508F45524E991EFBFF991B3
:10047E00E991A99109901895A0D0309731F4A62D45
:10048E0086D0CDD0A62D88D038C099D041F4CAD010
:10049E00E1E0CAD0AA2D7BD0CAD0AA2D34C0A3D0F9
:1004AE0041F4C0D0E2E0C0D0AB2D71D0C0D0AB2DA6
:1004BE002AC089D041F4B6D0E3E0B6D0A92D67D0DA
:1004CE00B6D0A92D20C087D041F4ACD0E4E0ACD09A
:1004DE00A82D5DD0ACD0A82D16C079D049F4E4E19A
:1004EE009ED0E1E0A1D0A62D52D0A1D0A62D0BC05A
:1004FE0076D079F4E4E193D0E2E0E0936101A72DA8
:10050E0046D095D0A72DBB27EAE0F0E0DDD0E093F2
:10051E006301089510E0EFEFE8BBE7BBE7E0E5BB52
:10052E00E8EFE4BBEFEFE2BBE1BBE0E0E3BFE2BF2D
:10053E00EFBDE2E0EEBDE0E0EDBDECBDE7BDE6BD3A
:10054E00EBBDEABDE9BDE8BDE2BDE5E0E5BDE0E03D
:10055E00E4BDE3BDE5BFE4E4E9BFE0E0EAB9E0E80D
:10056E00E8B9E0E0E0BFE6B9EDB9ECE0E0B9E0ED06
:10057E00E2B9E4E4E6BF7894D0DD5CD05BD07CDFFA
:10058E00A4E6B0E072D0FACFFFCFF0E00895B0E06D
:10059E00EAE0F0E094D00895BB27EAE0F0E094D0D2
:1005AE00089580DDA0ED87CDA1E08EDDAE2F9DCD2F
:1005BE00EC93FACFA7DDAE2F7ECDEC2DE6CFE1305A
:1005CE00A0E0FA070895E330A0E0FA070895E530B9
:1005DE00A0E0FA070895E430A0E0FA070895E630A7
:1005EE00A0E0FA070895E230A0E0FA070895CDDF03
:1005FE00319608956A929A928A92BA92AA2DBCCD99
:10060E00C4DF3197089520F8E89423F8089521F86F
:10061E00E89424F8089522F8E89425F80895E093D4
:10062E0060010895EDE0FBCFE09361010895E09342
:10063E0062010895E4E0F0E0FA93EA93E7E0F0E077
:10064E00FA93EA93E6E0F0E0FA93EA93E9E0F0E059
:10065E00FA93EA93E8E0F0E0FA93EA93EBE0F0E045
:10066E00FA93EA93AAE0B0E061CD109639F080EDEE
:10067E0097E00197F1F7A8951197C9F70895F195AD
:10068E00E195F0400895F595E795F595E795F59583
:10069E00E795F595E79508950024112490E1AA0FAA
:1006AE00BB1F001C111C0E1A1F0A18F40E0E1F1E63
:1006BE0001C0A1609A9599F7FD01D001089512D05D
:1006CE00EBDF0EF4DCDF0895E894B7FF04C0A095CD
:1006DE00B09511966894F7FDD2DFDEDFFD010EF4C2
:1006EE00CEDF0895E894F7FF02C0C9DF6894B7FF24
:1006FE0006C0A095B095119600F8039400FA0895DF
:00000001FF
