:0600000029C0FECFFDCF78
:10000600FCCF20C2FACFF9CFF8CFB3C1F6CFF5CFE8
:10001600F4CFF3CFF2CFF1CFF0CFEFCFEECFEDCFDE
:10002600A0F96470393222F820302823A661262EE2
:100036007F3CFF6B27FEF70008040201000000006A
:100046000200020042000100050044000000F8948E
:10005600EE27ECBBF1E0FBBFEBBFE5BFF8E1F1BD7E
:10006600E1BD8DE0A2E0BB27ED938A95E9F780E03C
:1000760094E0A0E6ED930197E9F7E6E4F0E08591D8
:100086009591009761F0A591B59105901590BF01E6
:10009600F00105900D920197E1F7FB01F0CFEFE536
:1000A600EDBFE4E0EEBFC0E6D1E065C2E4EEE6BF38
:1000B600E6B7E078E9F30895E4E9E6BF0895AA9380
:1000C600E881E3B9E4E8E6BFE6B7E078E9F327C0FC
:1000D600AA931A93A981A13011F4E4EC01C0E4E8D3
:1000E600E6BFE6B7E078E9F313B1E12F188122966F
:1000F6000895AA93E881E07F7FD23DD3AAE0EA0281
:10010600F001AE2FE881EF70EA0F09C0AA93A8812B
:1001160075D2A0E1EA02602DA88175D2E60F21967C
:10012600089576D2AEE0CBDFA0E0C9DFA8E8C7DF4E
:10013600C3DF0895BA93AA936BD2A0E0C0DFBCDFF9
:10014600B5DFA1EDBCDF67D2AC85BD8568D2AA85D7
:10015600BB8565D2A885B98562D2AE81BF815FD2E3
:10016600AC81BD815CD2AA81BB81EC93A0E0B0DFFB
:10017600AE2FBFDFA881B981EC939EDF2E9608953E
:10018600AA9346D2A0E09BDFAE814BD2AD8149D285
:10019600AC8147D2AB8145D2AA8143D2A98141D253
:1001A600A8813FD289DF27960895E7E0DE1618F486
:1001B6003BD2319601C0E0E0DE2E08951A931FE18E
:1001C600EB2D1AD233D211F035D209F402C036D251
:1001D60009F402C037D209F402C038D209F404C0C7
:1001E600EA30A0E0FA0709F404C0EC30A0E0FA0710
:1001F60011F41FE11DC02ED211F030D209F404C053
:10020600E930A0E0FA0709F404C0EB30A0E0FA07F1
:1002160011F41EE10DC026D259F4AA2DBB27E4E045
:10022600F0E0CAD2309711F4EDE101C0ECE11E2FE7
:10023600E12F19910895F8D1309719F4E8E0DE2EF0
:1002460049C0F4D149F4E3E6AE1618F4EA2D0ED20D
:1002560001C0E0E00ED23EC005D249F4ECE0BE1685
:1002660018F4EB2D03D201C0E1E00CD233C0E2D189
:1002760049F4E7E09E1618F4E92DF8D101C0E1E053
:100286000AD228C0E7D149F499DF8E1618F4E82D72
:10029600EDD101C0E1E008D21DC0D0D149F4E7E1BB
:1002A6006E1618F4E62DE2D101C0E0E006D212C0C7
:1002B600D5D149F4EBE37E1618F4E72DD7D101C06A
:1002C600E0E004D207C0BED111F409D203C0BED10A
:1002D60009F4DD240895A8D1309709F449C0A6D1C0
:1002E60049F4E0E0EA1518F4EA2D02D201C0E3E68B
:1002F600C0D13EC0B7D149F4E1E0EB1518F4EB2DBF
:10030600F7D101C0ECE0BED133C094D149F4E1E0AD
:10031600E91518F4E92DECD101C0E7E0BCD128C0FD
:1003260099D149F4E1E0E81518F4E82DE1D101C0CE
:1003360045DFBAD11DC082D149F4E0E0E61518F4D4
:10034600E62DD6D101C0E7E1B8D112C087D149F474
:10035600E0E0E71518F4E72DCBD101C0EBE3B6D109
:1003660007C070D111F4BBD103C070D109F4DD24EC
:1003760008950A921A92FA926A937A938A939A93B2
:10038600AA93BA93EA93FA93EFB7EA93989915C0AA
:1003960020FE10C023FE09C026FE04C006DFE89436
:1003A600AAD101C0689426F804C0689423F8E8949A
:1003B60026F803C068949FD126F8999915C021FEA6
:1003C60010C024FE09C027FE04C035DFE89497D18B
:1003D60001C0689427F804C0689424F8E89427F8C4
:1003E60003C068948CD127F89A9915C022FE10C0D4
:1003F60025FE09C030FE04C06EDFE89484D101C03A
:10040600689430F804C0689425F8E89430F803C07E
:10041600689479D130F8E0E0F0E0FDBDECBDC69B14
:1004260002C0C69801C0C69AE991EFBFF991E99159
:10043600B991A9919991899179916991F9901990B8
:10044600099018950A92AA93EA93FA93EFB7EA935A
:10045600E8B3E07FE8BBE52DCFD0E05AFE4FE08160
:10046600CBD0EA5DFF4F049002BA31FE06C0E1E050
:10047600E51519F4E0E0ED1509F004C0E2B3A0E2D9
:10048600EA27E2BBE8B3AE2FE52DB6D0E25CFF4F1C
:10049600E491EA2BE8BB5394E3E0E51508F4552410
:1004A600E991EFBFF991E991A99109901895BCD00E
:1004B600309759F4A62DA2D02AD1A62DA4D02AD1A0
:1004C600A72D9CD02AD1A72D4FC0B0D041F428D15A
:1004D600E1E020D1AA2D92D020D1AA2D45C0C2D0CC
:1004E60041F41ED1E2E016D1AB2D88D016D1AB2D4A
:1004F6003BC0A0D041F414D1E3E00CD1A92D7ED0AD
:100506000CD1A92D31C0A6D041F40AD1E4E002D124
:10051600A82D74D002D1A82D27C090D049F4E4E1CB
:10052600F6D0E1E0F7D0A62D69D0F7D0A62D1CC0F5
:1005360095D049F4E4E1EBD0E2E0ECD0A72D5ED013
:10054600ECD0A72D11C07ED021F4E4E1E0D0E3E0A9
:1005560005C07CD079F4E2E1DAD0E2E1E093610112
:10056600A42D4CD0DAD0A42DBB27EAE0F0E024D1AC
:10057600E09363010895EFEFE8BBE7BBE7E0E5BB77
:10058600E8EFE4BBEFEFE2BBE1BBE0E0E3BFE2BFD5
:10059600EFBDE2E0EEBDE0E0EDBDECBDE7BDE6BDE2
:1005A600EBBDEABDE9BDE8BDE2BDE5E0E5BDE0E0E5
:1005B600E4BDE3BDE5BFE4E4E9BFE0E0EAB9E0E8B5
:1005C600E8B9E0E0E0BFE6B9EDB9ECE0E0B9E0EDAE
:1005D600E2B9E4E4E6BF7894A4DDA4D010E0A2D0AA
:1005E6001F5F153019F4E2E03E2610E060DFA4E656
:1005F600B0E0B3D0F4CFFFCFF0E00895B0E0EAE08A
:10060600F0E0D5D00895BB27EAE0F0E0D5D0089514
:100616004DDDA0ED54CDA1E05BDDAE2F6ACDEC93B0
:10062600FACF74DDAE2F4BCDED2DE6CFE130A0E055
:10063600FA070895E330A0E0FA070895E530A0E050
:10064600FA070895E730A0E0FA070895E830A0E039
:10065600FA070895E430A0E0FA070895E630A0E02E
:10066600FA070895E230A0E0FA070895C5DF31964B
:100676000895AE2E4A927A926A929A928A92BA9283
:10068600AA2D7ECDBE2E4A927A926A929A928A922A
:10069600BA92AA2D75CD9E2E4A927A926A929A9213
:1006A6008A92BA92AA2D6CCD8E2E4A927A926A922C
:1006B6009A928A92BA92AA2D63CD6E2E4A927A9215
:1006C6006A929A928A92BA92AA2D5ACD7E2E4A920E
:1006D6007A926A929A928A92BA92AA2D51CD44241B
:1006E6004A927A926A929A928A92BA92AA2D48CDA0
:1006F60083DF3197089520F8E89423F8089521F8C8
:10070600E89424F8089522F8E89425F80895E093EB
:1007160060010895E09361010895E09362010895F0
:10072600EDE0F5CFE4E0F0E0FA93EA93E7E0F0E0FD
:10073600FA93EA93E6E0F0E0FA93EA93E9E0F0E070
:10074600FA93EA93E8E0F0E0FA93EA93EBE0F0E05C
:10075600FA93EA93AAE0B0E0EDCC109639F080ED7A
:1007660097E00197F1F7A8951197C9F70895F195C4
:10077600E195F0400895F595E795F595E795F5959A
:10078600E795F595E79508950024112490E1AA0FC1
:10079600BB1F001C111C0E1A1F0A18F40E0E1F1E7A
:1007A60001C0A1609A9599F7FD01D001089512D074
:1007B600EBDF0EF4DCDF0895E894B7FF04C0A095E4
:1007C600B09511966894F7FDD2DFDEDFFD010EF4D9
:1007D600CEDF0895E894F7FF02C0C9DF6894B7FF3B
:1007E60006C0A095B095119600F8039400FA0895F6
:00000001FF
